{
  "contractName": "StarNotary",
  "abi": [
    {
      "inputs": [],
      "stateMutability": "nonpayable",
      "type": "constructor"
    },
    {
      "anonymous": false,
      "inputs": [
        {
          "indexed": true,
          "internalType": "address",
          "name": "owner",
          "type": "address"
        },
        {
          "indexed": true,
          "internalType": "address",
          "name": "approved",
          "type": "address"
        },
        {
          "indexed": true,
          "internalType": "uint256",
          "name": "tokenId",
          "type": "uint256"
        }
      ],
      "name": "Approval",
      "type": "event"
    },
    {
      "anonymous": false,
      "inputs": [
        {
          "indexed": true,
          "internalType": "address",
          "name": "owner",
          "type": "address"
        },
        {
          "indexed": true,
          "internalType": "address",
          "name": "operator",
          "type": "address"
        },
        {
          "indexed": false,
          "internalType": "bool",
          "name": "approved",
          "type": "bool"
        }
      ],
      "name": "ApprovalForAll",
      "type": "event"
    },
    {
      "anonymous": false,
      "inputs": [
        {
          "indexed": true,
          "internalType": "address",
          "name": "from",
          "type": "address"
        },
        {
          "indexed": true,
          "internalType": "address",
          "name": "to",
          "type": "address"
        },
        {
          "indexed": true,
          "internalType": "uint256",
          "name": "tokenId",
          "type": "uint256"
        }
      ],
      "name": "Transfer",
      "type": "event"
    },
    {
      "inputs": [
        {
          "internalType": "address",
          "name": "to",
          "type": "address"
        },
        {
          "internalType": "uint256",
          "name": "tokenId",
          "type": "uint256"
        }
      ],
      "name": "approve",
      "outputs": [],
      "stateMutability": "nonpayable",
      "type": "function"
    },
    {
      "inputs": [
        {
          "internalType": "address",
          "name": "owner",
          "type": "address"
        }
      ],
      "name": "balanceOf",
      "outputs": [
        {
          "internalType": "uint256",
          "name": "",
          "type": "uint256"
        }
      ],
      "stateMutability": "view",
      "type": "function"
    },
    {
      "inputs": [
        {
          "internalType": "uint256",
          "name": "tokenId",
          "type": "uint256"
        }
      ],
      "name": "getApproved",
      "outputs": [
        {
          "internalType": "address",
          "name": "",
          "type": "address"
        }
      ],
      "stateMutability": "view",
      "type": "function"
    },
    {
      "inputs": [
        {
          "internalType": "address",
          "name": "owner",
          "type": "address"
        },
        {
          "internalType": "address",
          "name": "operator",
          "type": "address"
        }
      ],
      "name": "isApprovedForAll",
      "outputs": [
        {
          "internalType": "bool",
          "name": "",
          "type": "bool"
        }
      ],
      "stateMutability": "view",
      "type": "function"
    },
    {
      "inputs": [],
      "name": "name",
      "outputs": [
        {
          "internalType": "string",
          "name": "",
          "type": "string"
        }
      ],
      "stateMutability": "view",
      "type": "function"
    },
    {
      "inputs": [
        {
          "internalType": "uint256",
          "name": "tokenId",
          "type": "uint256"
        }
      ],
      "name": "ownerOf",
      "outputs": [
        {
          "internalType": "address",
          "name": "",
          "type": "address"
        }
      ],
      "stateMutability": "view",
      "type": "function"
    },
    {
      "inputs": [
        {
          "internalType": "address",
          "name": "from",
          "type": "address"
        },
        {
          "internalType": "address",
          "name": "to",
          "type": "address"
        },
        {
          "internalType": "uint256",
          "name": "tokenId",
          "type": "uint256"
        }
      ],
      "name": "safeTransferFrom",
      "outputs": [],
      "stateMutability": "nonpayable",
      "type": "function"
    },
    {
      "inputs": [
        {
          "internalType": "address",
          "name": "from",
          "type": "address"
        },
        {
          "internalType": "address",
          "name": "to",
          "type": "address"
        },
        {
          "internalType": "uint256",
          "name": "tokenId",
          "type": "uint256"
        },
        {
          "internalType": "bytes",
          "name": "_data",
          "type": "bytes"
        }
      ],
      "name": "safeTransferFrom",
      "outputs": [],
      "stateMutability": "nonpayable",
      "type": "function"
    },
    {
      "inputs": [
        {
          "internalType": "address",
          "name": "operator",
          "type": "address"
        },
        {
          "internalType": "bool",
          "name": "approved",
          "type": "bool"
        }
      ],
      "name": "setApprovalForAll",
      "outputs": [],
      "stateMutability": "nonpayable",
      "type": "function"
    },
    {
      "inputs": [
        {
          "internalType": "uint256",
          "name": "",
          "type": "uint256"
        }
      ],
      "name": "starsForSale",
      "outputs": [
        {
          "internalType": "uint256",
          "name": "",
          "type": "uint256"
        }
      ],
      "stateMutability": "view",
      "type": "function"
    },
    {
      "inputs": [
        {
          "internalType": "bytes4",
          "name": "interfaceId",
          "type": "bytes4"
        }
      ],
      "name": "supportsInterface",
      "outputs": [
        {
          "internalType": "bool",
          "name": "",
          "type": "bool"
        }
      ],
      "stateMutability": "view",
      "type": "function"
    },
    {
      "inputs": [],
      "name": "symbol",
      "outputs": [
        {
          "internalType": "string",
          "name": "",
          "type": "string"
        }
      ],
      "stateMutability": "view",
      "type": "function"
    },
    {
      "inputs": [
        {
          "internalType": "uint256",
          "name": "",
          "type": "uint256"
        }
      ],
      "name": "tokenIdToStarInfo",
      "outputs": [
        {
          "internalType": "string",
          "name": "name",
          "type": "string"
        }
      ],
      "stateMutability": "view",
      "type": "function"
    },
    {
      "inputs": [
        {
          "internalType": "uint256",
          "name": "tokenId",
          "type": "uint256"
        }
      ],
      "name": "tokenURI",
      "outputs": [
        {
          "internalType": "string",
          "name": "",
          "type": "string"
        }
      ],
      "stateMutability": "view",
      "type": "function"
    },
    {
      "inputs": [
        {
          "internalType": "address",
          "name": "from",
          "type": "address"
        },
        {
          "internalType": "address",
          "name": "to",
          "type": "address"
        },
        {
          "internalType": "uint256",
          "name": "tokenId",
          "type": "uint256"
        }
      ],
      "name": "transferFrom",
      "outputs": [],
      "stateMutability": "nonpayable",
      "type": "function"
    },
    {
      "inputs": [
        {
          "internalType": "string",
          "name": "_name",
          "type": "string"
        },
        {
          "internalType": "uint256",
          "name": "_tokenId",
          "type": "uint256"
        }
      ],
      "name": "createStar",
      "outputs": [],
      "stateMutability": "nonpayable",
      "type": "function"
    },
    {
      "inputs": [
        {
          "internalType": "uint256",
          "name": "_tokenId",
          "type": "uint256"
        },
        {
          "internalType": "uint256",
          "name": "_price",
          "type": "uint256"
        }
      ],
      "name": "putStarUpForSale",
      "outputs": [],
      "stateMutability": "nonpayable",
      "type": "function"
    },
    {
      "inputs": [
        {
          "internalType": "uint256",
          "name": "_tokenId",
          "type": "uint256"
        }
      ],
      "name": "buyStar",
      "outputs": [],
      "stateMutability": "payable",
      "type": "function"
    },
    {
      "inputs": [
        {
          "internalType": "uint256",
          "name": "_tokenId",
          "type": "uint256"
        }
      ],
      "name": "lookUptokenIdToStarInfo",
      "outputs": [
        {
          "internalType": "string",
          "name": "",
          "type": "string"
        }
      ],
      "stateMutability": "view",
      "type": "function"
    },
    {
      "inputs": [
        {
          "internalType": "uint256",
          "name": "_tokenId1",
          "type": "uint256"
        },
        {
          "internalType": "uint256",
          "name": "_tokenId2",
          "type": "uint256"
        }
      ],
      "name": "exchangeStars",
      "outputs": [],
      "stateMutability": "nonpayable",
      "type": "function"
    },
    {
      "inputs": [
        {
          "internalType": "address",
          "name": "_recipient",
          "type": "address"
        },
        {
          "internalType": "uint256",
          "name": "_tokenId",
          "type": "uint256"
        }
      ],
      "name": "transferStar",
      "outputs": [],
      "stateMutability": "nonpayable",
      "type": "function"
    }
  ],
  "bytecode": "0x60806040523480156200001157600080fd5b506040518060400160405280600b81526020017f53746172204e6f746172790000000000000000000000000000000000000000008152506040518060400160405280600581526020017f2453544152000000000000000000000000000000000000000000000000000000815250816000908051906020019062000096929190620000b8565b508060019080519060200190620000af929190620000b8565b505050620001cd565b828054620000c69062000168565b90600052602060002090601f016020900481019282620000ea576000855562000136565b82601f106200010557805160ff191683800117855562000136565b8280016001018555821562000136579182015b828111156200013557825182559160200191906001019062000118565b5b50905062000145919062000149565b5090565b5b80821115620001645760008160009055506001016200014a565b5090565b600060028204905060018216806200018157607f821691505b602082108114156200019857620001976200019e565b5b50919050565b7f4e487b7100000000000000000000000000000000000000000000000000000000600052602260045260246000fd5b61305c80620001dd6000396000f3fe60806040526004361061012a5760003560e01c806342842e0e116100ab578063a22cb4651161006f578063a22cb46514610405578063b88d4fde1461042e578063c87b56dd14610457578063d7830ccb14610494578063e7152a5c146104d1578063e985e9c5146104fa5761012a565b806342842e0e1461030e5780636352211e1461033757806370a082311461037457806395d89b41146103b15780639697c0a1146103dc5761012a565b806315e0afa5116100f257806315e0afa51461023a5780631967fd981461026357806323b872dd146102a05780632f1c34ef146102c9578063316a4361146102e55761012a565b806301ffc9a71461012f5780630564b1301461016c57806306fdde03146101a9578063081812fc146101d4578063095ea7b314610211575b600080fd5b34801561013b57600080fd5b50610156600480360381019061015191906120a0565b610537565b6040516101639190612974565b60405180910390f35b34801561017857600080fd5b50610193600480360381019061018e9190612146565b610619565b6040516101a09190612bf1565b60405180910390f35b3480156101b557600080fd5b506101be610631565b6040516101cb919061298f565b60405180910390f35b3480156101e057600080fd5b506101fb60048036038101906101f69190612146565b6106c3565b604051610208919061290d565b60405180910390f35b34801561021d57600080fd5b5061023860048036038101906102339190612064565b610748565b005b34801561024657600080fd5b50610261600480360381019061025c919061216f565b610860565b005b34801561026f57600080fd5b5061028a60048036038101906102859190612146565b61093a565b604051610297919061298f565b60405180910390f35b3480156102ac57600080fd5b506102c760048036038101906102c29190611f5e565b6109e0565b005b6102e360048036038101906102de9190612146565b610a40565b005b3480156102f157600080fd5b5061030c6004803603810190610307919061216f565b610bd6565b005b34801561031a57600080fd5b5061033560048036038101906103309190611f5e565b610c68565b005b34801561034357600080fd5b5061035e60048036038101906103599190612146565b610c88565b60405161036b919061290d565b60405180910390f35b34801561038057600080fd5b5061039b60048036038101906103969190611ef9565b610d3a565b6040516103a89190612bf1565b60405180910390f35b3480156103bd57600080fd5b506103c6610df2565b6040516103d3919061298f565b60405180910390f35b3480156103e857600080fd5b5061040360048036038101906103fe91906120f2565b610e84565b005b34801561041157600080fd5b5061042c60048036038101906104279190612028565b610eda565b005b34801561043a57600080fd5b5061045560048036038101906104509190611fad565b61105b565b005b34801561046357600080fd5b5061047e60048036038101906104799190612146565b6110bd565b60405161048b919061298f565b60405180910390f35b3480156104a057600080fd5b506104bb60048036038101906104b69190612146565b611164565b6040516104c8919061298f565b60405180910390f35b3480156104dd57600080fd5b506104f860048036038101906104f39190612064565b61120c565b005b34801561050657600080fd5b50610521600480360381019061051c9190611f22565b61121b565b60405161052e9190612974565b60405180910390f35b60007f80ac58cd000000000000000000000000000000000000000000000000000000007bffffffffffffffffffffffffffffffffffffffffffffffffffffffff1916827bffffffffffffffffffffffffffffffffffffffffffffffffffffffff1916148061060257507f5b5e139f000000000000000000000000000000000000000000000000000000007bffffffffffffffffffffffffffffffffffffffffffffffffffffffff1916827bffffffffffffffffffffffffffffffffffffffffffffffffffffffff1916145b806106125750610611826112af565b5b9050919050565b60076020528060005260406000206000915090505481565b60606000805461064090612e51565b80601f016020809104026020016040519081016040528092919081815260200182805461066c90612e51565b80156106b95780601f1061068e576101008083540402835291602001916106b9565b820191906000526020600020905b81548152906001019060200180831161069c57829003601f168201915b5050505050905090565b60006106ce82611319565b61070d576040517f08c379a000000000000000000000000000000000000000000000000000000000815260040161070490612b31565b60405180910390fd5b6004600083815260200190815260200160002060009054906101000a900473ffffffffffffffffffffffffffffffffffffffff169050919050565b600061075382610c88565b90508073ffffffffffffffffffffffffffffffffffffffff168373ffffffffffffffffffffffffffffffffffffffff1614156107c4576040517f08c379a00000000000000000000000000000000000000000000000000000000081526004016107bb90612b91565b60405180910390fd5b8073ffffffffffffffffffffffffffffffffffffffff166107e3611385565b73ffffffffffffffffffffffffffffffffffffffff16148061081257506108118161080c611385565b61121b565b5b610851576040517f08c379a000000000000000000000000000000000000000000000000000000000815260040161084890612a91565b60405180910390fd5b61085b838361138d565b505050565b600061086b83610c88565b9050600061087883610c88565b90508173ffffffffffffffffffffffffffffffffffffffff163373ffffffffffffffffffffffffffffffffffffffff1614806108df57508073ffffffffffffffffffffffffffffffffffffffff163373ffffffffffffffffffffffffffffffffffffffff16145b61091e576040517f08c379a0000000000000000000000000000000000000000000000000000000008152600401610915906129b1565b60405180910390fd5b610929828286611446565b610934818385611446565b50505050565b600660205280600052604060002060009150905080600001805461095d90612e51565b80601f016020809104026020016040519081016040528092919081815260200182805461098990612e51565b80156109d65780601f106109ab576101008083540402835291602001916109d6565b820191906000526020600020905b8154815290600101906020018083116109b957829003601f168201915b5050505050905081565b6109f16109eb611385565b826116a2565b610a30576040517f08c379a0000000000000000000000000000000000000000000000000000000008152600401610a2790612bd1565b60405180910390fd5b610a3b838383611446565b505050565b6000600760008381526020019081526020016000205411610a96576040517f08c379a0000000000000000000000000000000000000000000000000000000008152600401610a8d90612bb1565b60405180910390fd5b6000600760008381526020019081526020016000205490506000349050600082821190506000610ac585610c88565b9050600033905082610b0c576040517f08c379a0000000000000000000000000000000000000000000000000000000008152600401610b0390612ab1565b60405180910390fd5b610b17828288611446565b8173ffffffffffffffffffffffffffffffffffffffff166108fc869081150290604051600060405180830381858888f19350505050158015610b5d573d6000803e3d6000fd5b508215610bb7578073ffffffffffffffffffffffffffffffffffffffff166108fc8686610b8a9190612d67565b9081150290604051600060405180830381858888f19350505050158015610bb5573d6000803e3d6000fd5b505b6007600087815260200190815260200160002060009055505050505050565b3373ffffffffffffffffffffffffffffffffffffffff16610bf683610c88565b73ffffffffffffffffffffffffffffffffffffffff1614610c4c576040517f08c379a0000000000000000000000000000000000000000000000000000000008152600401610c4390612a11565b60405180910390fd5b8060076000848152602001908152602001600020819055505050565b610c838383836040518060200160405280600081525061105b565b505050565b6000806002600084815260200190815260200160002060009054906101000a900473ffffffffffffffffffffffffffffffffffffffff169050600073ffffffffffffffffffffffffffffffffffffffff168173ffffffffffffffffffffffffffffffffffffffff161415610d31576040517f08c379a0000000000000000000000000000000000000000000000000000000008152600401610d2890612af1565b60405180910390fd5b80915050919050565b60008073ffffffffffffffffffffffffffffffffffffffff168273ffffffffffffffffffffffffffffffffffffffff161415610dab576040517f08c379a0000000000000000000000000000000000000000000000000000000008152600401610da290612ad1565b60405180910390fd5b600360008373ffffffffffffffffffffffffffffffffffffffff1673ffffffffffffffffffffffffffffffffffffffff168152602001908152602001600020549050919050565b606060018054610e0190612e51565b80601f0160208091040260200160405190810160405280929190818152602001828054610e2d90612e51565b8015610e7a5780601f10610e4f57610100808354040283529160200191610e7a565b820191906000526020600020905b815481529060010190602001808311610e5d57829003601f168201915b5050505050905090565b6000604051806020016040528084815250905080600660008481526020019081526020016000206000820151816000019080519060200190610ec7929190611d1d565b50905050610ed53383611780565b505050565b610ee2611385565b73ffffffffffffffffffffffffffffffffffffffff168273ffffffffffffffffffffffffffffffffffffffff161415610f50576040517f08c379a0000000000000000000000000000000000000000000000000000000008152600401610f4790612a51565b60405180910390fd5b8060056000610f5d611385565b73ffffffffffffffffffffffffffffffffffffffff1673ffffffffffffffffffffffffffffffffffffffff16815260200190815260200160002060008473ffffffffffffffffffffffffffffffffffffffff1673ffffffffffffffffffffffffffffffffffffffff16815260200190815260200160002060006101000a81548160ff0219169083151502179055508173ffffffffffffffffffffffffffffffffffffffff1661100a611385565b73ffffffffffffffffffffffffffffffffffffffff167f17307eab39ab6107e8899845ad3d59bd9653f200f220920489ca2b5937696c318360405161104f9190612974565b60405180910390a35050565b61106c611066611385565b836116a2565b6110ab576040517f08c379a00000000000000000000000000000000000000000000000000000000081526004016110a290612bd1565b60405180910390fd5b6110b78484848461194e565b50505050565b60606110c882611319565b611107576040517f08c379a00000000000000000000000000000000000000000000000000000000081526004016110fe90612b71565b60405180910390fd5b60006111116119aa565b90506000815111611131576040518060200160405280600081525061115c565b8061113b846119c1565b60405160200161114c9291906128e9565b6040516020818303038152906040525b915050919050565b606060066000838152602001908152602001600020600001805461118790612e51565b80601f01602080910402602001604051908101604052809291908181526020018280546111b390612e51565b80156112005780601f106111d557610100808354040283529160200191611200565b820191906000526020600020905b8154815290600101906020018083116111e357829003601f168201915b50505050509050919050565b611217338383610c68565b5050565b6000600560008473ffffffffffffffffffffffffffffffffffffffff1673ffffffffffffffffffffffffffffffffffffffff16815260200190815260200160002060008373ffffffffffffffffffffffffffffffffffffffff1673ffffffffffffffffffffffffffffffffffffffff16815260200190815260200160002060009054906101000a900460ff16905092915050565b60007f01ffc9a7000000000000000000000000000000000000000000000000000000007bffffffffffffffffffffffffffffffffffffffffffffffffffffffff1916827bffffffffffffffffffffffffffffffffffffffffffffffffffffffff1916149050919050565b60008073ffffffffffffffffffffffffffffffffffffffff166002600084815260200190815260200160002060009054906101000a900473ffffffffffffffffffffffffffffffffffffffff1673ffffffffffffffffffffffffffffffffffffffff1614159050919050565b600033905090565b816004600083815260200190815260200160002060006101000a81548173ffffffffffffffffffffffffffffffffffffffff021916908373ffffffffffffffffffffffffffffffffffffffff160217905550808273ffffffffffffffffffffffffffffffffffffffff1661140083610c88565b73ffffffffffffffffffffffffffffffffffffffff167f8c5be1e5ebec7d5bd14f71427d1e84f3dd0314c0f7b2291e5b200ac8c7c3b92560405160405180910390a45050565b8273ffffffffffffffffffffffffffffffffffffffff1661146682610c88565b73ffffffffffffffffffffffffffffffffffffffff16146114bc576040517f08c379a00000000000000000000000000000000000000000000000000000000081526004016114b390612b51565b60405180910390fd5b600073ffffffffffffffffffffffffffffffffffffffff168273ffffffffffffffffffffffffffffffffffffffff16141561152c576040517f08c379a000000000000000000000000000000000000000000000000000000000815260040161152390612a31565b60405180910390fd5b611537838383611b6e565b61154260008261138d565b6001600360008573ffffffffffffffffffffffffffffffffffffffff1673ffffffffffffffffffffffffffffffffffffffff16815260200190815260200160002060008282546115929190612d67565b925050819055506001600360008473ffffffffffffffffffffffffffffffffffffffff1673ffffffffffffffffffffffffffffffffffffffff16815260200190815260200160002060008282546115e99190612ce0565b92505081905550816002600083815260200190815260200160002060006101000a81548173ffffffffffffffffffffffffffffffffffffffff021916908373ffffffffffffffffffffffffffffffffffffffff160217905550808273ffffffffffffffffffffffffffffffffffffffff168473ffffffffffffffffffffffffffffffffffffffff167fddf252ad1be2c89b69c2b068fc378daa952ba7f163c4a11628f55a4df523b3ef60405160405180910390a4505050565b60006116ad82611319565b6116ec576040517f08c379a00000000000000000000000000000000000000000000000000000000081526004016116e390612a71565b60405180910390fd5b60006116f783610c88565b90508073ffffffffffffffffffffffffffffffffffffffff168473ffffffffffffffffffffffffffffffffffffffff16148061176657508373ffffffffffffffffffffffffffffffffffffffff1661174e846106c3565b73ffffffffffffffffffffffffffffffffffffffff16145b806117775750611776818561121b565b5b91505092915050565b600073ffffffffffffffffffffffffffffffffffffffff168273ffffffffffffffffffffffffffffffffffffffff1614156117f0576040517f08c379a00000000000000000000000000000000000000000000000000000000081526004016117e790612b11565b60405180910390fd5b6117f981611319565b15611839576040517f08c379a0000000000000000000000000000000000000000000000000000000008152600401611830906129f1565b60405180910390fd5b61184560008383611b6e565b6001600360008473ffffffffffffffffffffffffffffffffffffffff1673ffffffffffffffffffffffffffffffffffffffff16815260200190815260200160002060008282546118959190612ce0565b92505081905550816002600083815260200190815260200160002060006101000a81548173ffffffffffffffffffffffffffffffffffffffff021916908373ffffffffffffffffffffffffffffffffffffffff160217905550808273ffffffffffffffffffffffffffffffffffffffff16600073ffffffffffffffffffffffffffffffffffffffff167fddf252ad1be2c89b69c2b068fc378daa952ba7f163c4a11628f55a4df523b3ef60405160405180910390a45050565b611959848484611446565b61196584848484611b73565b6119a4576040517f08c379a000000000000000000000000000000000000000000000000000000000815260040161199b906129d1565b60405180910390fd5b50505050565b606060405180602001604052806000815250905090565b60606000821415611a09576040518060400160405280600181526020017f30000000000000000000000000000000000000000000000000000000000000008152509050611b69565b600082905060005b60008214611a3b578080611a2490612e83565b915050600a82611a349190612d36565b9150611a11565b60008167ffffffffffffffff811115611a7d577f4e487b7100000000000000000000000000000000000000000000000000000000600052604160045260246000fd5b6040519080825280601f01601f191660200182016040528015611aaf5781602001600182028036833780820191505090505b5090505b60008514611b6257600182611ac89190612d67565b9150600a85611ad79190612ecc565b6030611ae39190612ce0565b60f81b818381518110611b1f577f4e487b7100000000000000000000000000000000000000000000000000000000600052603260045260246000fd5b60200101907effffffffffffffffffffffffffffffffffffffffffffffffffffffffffffff1916908160001a905350600a85611b5b9190612d36565b9450611ab3565b8093505050505b919050565b505050565b6000611b948473ffffffffffffffffffffffffffffffffffffffff16611d0a565b15611cfd578373ffffffffffffffffffffffffffffffffffffffff1663150b7a02611bbd611385565b8786866040518563ffffffff1660e01b8152600401611bdf9493929190612928565b602060405180830381600087803b158015611bf957600080fd5b505af1925050508015611c2a57506040513d601f19601f82011682018060405250810190611c2791906120c9565b60015b611cad573d8060008114611c5a576040519150601f19603f3d011682016040523d82523d6000602084013e611c5f565b606091505b50600081511415611ca5576040517f08c379a0000000000000000000000000000000000000000000000000000000008152600401611c9c906129d1565b60405180910390fd5b805181602001fd5b63150b7a0260e01b7bffffffffffffffffffffffffffffffffffffffffffffffffffffffff1916817bffffffffffffffffffffffffffffffffffffffffffffffffffffffff191614915050611d02565b600190505b949350505050565b600080823b905060008111915050919050565b828054611d2990612e51565b90600052602060002090601f016020900481019282611d4b5760008555611d92565b82601f10611d6457805160ff1916838001178555611d92565b82800160010185558215611d92579182015b82811115611d91578251825591602001919060010190611d76565b5b509050611d9f9190611da3565b5090565b5b80821115611dbc576000816000905550600101611da4565b5090565b6000611dd3611dce84612c3d565b612c0c565b905082815260208101848484011115611deb57600080fd5b611df6848285612e0f565b509392505050565b6000611e11611e0c84612c6d565b612c0c565b905082815260208101848484011115611e2957600080fd5b611e34848285612e0f565b509392505050565b600081359050611e4b81612fca565b92915050565b600081359050611e6081612fe1565b92915050565b600081359050611e7581612ff8565b92915050565b600081519050611e8a81612ff8565b92915050565b600082601f830112611ea157600080fd5b8135611eb1848260208601611dc0565b91505092915050565b600082601f830112611ecb57600080fd5b8135611edb848260208601611dfe565b91505092915050565b600081359050611ef38161300f565b92915050565b600060208284031215611f0b57600080fd5b6000611f1984828501611e3c565b91505092915050565b60008060408385031215611f3557600080fd5b6000611f4385828601611e3c565b9250506020611f5485828601611e3c565b9150509250929050565b600080600060608486031215611f7357600080fd5b6000611f8186828701611e3c565b9350506020611f9286828701611e3c565b9250506040611fa386828701611ee4565b9150509250925092565b60008060008060808587031215611fc357600080fd5b6000611fd187828801611e3c565b9450506020611fe287828801611e3c565b9350506040611ff387828801611ee4565b925050606085013567ffffffffffffffff81111561201057600080fd5b61201c87828801611e90565b91505092959194509250565b6000806040838503121561203b57600080fd5b600061204985828601611e3c565b925050602061205a85828601611e51565b9150509250929050565b6000806040838503121561207757600080fd5b600061208585828601611e3c565b925050602061209685828601611ee4565b9150509250929050565b6000602082840312156120b257600080fd5b60006120c084828501611e66565b91505092915050565b6000602082840312156120db57600080fd5b60006120e984828501611e7b565b91505092915050565b6000806040838503121561210557600080fd5b600083013567ffffffffffffffff81111561211f57600080fd5b61212b85828601611eba565b925050602061213c85828601611ee4565b9150509250929050565b60006020828403121561215857600080fd5b600061216684828501611ee4565b91505092915050565b6000806040838503121561218257600080fd5b600061219085828601611ee4565b92505060206121a185828601611ee4565b9150509250929050565b6121b481612d9b565b82525050565b6121c381612dad565b82525050565b60006121d482612c9d565b6121de8185612cb3565b93506121ee818560208601612e1e565b6121f781612fb9565b840191505092915050565b600061220d82612ca8565b6122178185612cc4565b9350612227818560208601612e1e565b61223081612fb9565b840191505092915050565b600061224682612ca8565b6122508185612cd5565b9350612260818560208601612e1e565b80840191505092915050565b6000612279602a83612cc4565b91507f596f75206e65656420746f206f776e206174206c65617374206f6e65206f662060008301527f74686520746f6b656e73000000000000000000000000000000000000000000006020830152604082019050919050565b60006122df603283612cc4565b91507f4552433732313a207472616e7366657220746f206e6f6e20455243373231526560008301527f63656976657220696d706c656d656e74657200000000000000000000000000006020830152604082019050919050565b6000612345601c83612cc4565b91507f4552433732313a20746f6b656e20616c7265616479206d696e746564000000006000830152602082019050919050565b6000612385602483612cc4565b91507f596f752063616e27742073656c6c205374617228732920796f7520646f6e277460008301527f206f776e000000000000000000000000000000000000000000000000000000006020830152604082019050919050565b60006123eb602483612cc4565b91507f4552433732313a207472616e7366657220746f20746865207a65726f2061646460008301527f72657373000000000000000000000000000000000000000000000000000000006020830152604082019050919050565b6000612451601983612cc4565b91507f4552433732313a20617070726f766520746f2063616c6c6572000000000000006000830152602082019050919050565b6000612491602c83612cc4565b91507f4552433732313a206f70657261746f7220717565727920666f72206e6f6e657860008301527f697374656e7420746f6b656e00000000000000000000000000000000000000006020830152604082019050919050565b60006124f7603883612cc4565b91507f4552433732313a20617070726f76652063616c6c6572206973206e6f74206f7760008301527f6e6572206e6f7220617070726f76656420666f7220616c6c00000000000000006020830152604082019050919050565b600061255d601a83612cc4565b91507f53756666696369656e74204574682069732072657175697265640000000000006000830152602082019050919050565b600061259d602a83612cc4565b91507f4552433732313a2062616c616e636520717565727920666f7220746865207a6560008301527f726f2061646472657373000000000000000000000000000000000000000000006020830152604082019050919050565b6000612603602983612cc4565b91507f4552433732313a206f776e657220717565727920666f72206e6f6e657869737460008301527f656e7420746f6b656e00000000000000000000000000000000000000000000006020830152604082019050919050565b6000612669602083612cc4565b91507f4552433732313a206d696e7420746f20746865207a65726f20616464726573736000830152602082019050919050565b60006126a9602c83612cc4565b91507f4552433732313a20617070726f76656420717565727920666f72206e6f6e657860008301527f697374656e7420746f6b656e00000000000000000000000000000000000000006020830152604082019050919050565b600061270f602983612cc4565b91507f4552433732313a207472616e73666572206f6620746f6b656e2074686174206960008301527f73206e6f74206f776e00000000000000000000000000000000000000000000006020830152604082019050919050565b6000612775602f83612cc4565b91507f4552433732314d657461646174613a2055524920717565727920666f72206e6f60008301527f6e6578697374656e7420746f6b656e00000000000000000000000000000000006020830152604082019050919050565b60006127db602183612cc4565b91507f4552433732313a20617070726f76616c20746f2063757272656e74206f776e6560008301527f72000000000000000000000000000000000000000000000000000000000000006020830152604082019050919050565b6000612841601e83612cc4565b91507f54686520537461722073686f756c6420626520757020666f722073616c6500006000830152602082019050919050565b6000612881603183612cc4565b91507f4552433732313a207472616e736665722063616c6c6572206973206e6f74206f60008301527f776e6572206e6f7220617070726f7665640000000000000000000000000000006020830152604082019050919050565b6128e381612e05565b82525050565b60006128f5828561223b565b9150612901828461223b565b91508190509392505050565b600060208201905061292260008301846121ab565b92915050565b600060808201905061293d60008301876121ab565b61294a60208301866121ab565b61295760408301856128da565b818103606083015261296981846121c9565b905095945050505050565b600060208201905061298960008301846121ba565b92915050565b600060208201905081810360008301526129a98184612202565b905092915050565b600060208201905081810360008301526129ca8161226c565b9050919050565b600060208201905081810360008301526129ea816122d2565b9050919050565b60006020820190508181036000830152612a0a81612338565b9050919050565b60006020820190508181036000830152612a2a81612378565b9050919050565b60006020820190508181036000830152612a4a816123de565b9050919050565b60006020820190508181036000830152612a6a81612444565b9050919050565b60006020820190508181036000830152612a8a81612484565b9050919050565b60006020820190508181036000830152612aaa816124ea565b9050919050565b60006020820190508181036000830152612aca81612550565b9050919050565b60006020820190508181036000830152612aea81612590565b9050919050565b60006020820190508181036000830152612b0a816125f6565b9050919050565b60006020820190508181036000830152612b2a8161265c565b9050919050565b60006020820190508181036000830152612b4a8161269c565b9050919050565b60006020820190508181036000830152612b6a81612702565b9050919050565b60006020820190508181036000830152612b8a81612768565b9050919050565b60006020820190508181036000830152612baa816127ce565b9050919050565b60006020820190508181036000830152612bca81612834565b9050919050565b60006020820190508181036000830152612bea81612874565b9050919050565b6000602082019050612c0660008301846128da565b92915050565b6000604051905081810181811067ffffffffffffffff82111715612c3357612c32612f8a565b5b8060405250919050565b600067ffffffffffffffff821115612c5857612c57612f8a565b5b601f19601f8301169050602081019050919050565b600067ffffffffffffffff821115612c8857612c87612f8a565b5b601f19601f8301169050602081019050919050565b600081519050919050565b600081519050919050565b600082825260208201905092915050565b600082825260208201905092915050565b600081905092915050565b6000612ceb82612e05565b9150612cf683612e05565b9250827fffffffffffffffffffffffffffffffffffffffffffffffffffffffffffffffff03821115612d2b57612d2a612efd565b5b828201905092915050565b6000612d4182612e05565b9150612d4c83612e05565b925082612d5c57612d5b612f2c565b5b828204905092915050565b6000612d7282612e05565b9150612d7d83612e05565b925082821015612d9057612d8f612efd565b5b828203905092915050565b6000612da682612de5565b9050919050565b60008115159050919050565b60007fffffffff0000000000000000000000000000000000000000000000000000000082169050919050565b600073ffffffffffffffffffffffffffffffffffffffff82169050919050565b6000819050919050565b82818337600083830152505050565b60005b83811015612e3c578082015181840152602081019050612e21565b83811115612e4b576000848401525b50505050565b60006002820490506001821680612e6957607f821691505b60208210811415612e7d57612e7c612f5b565b5b50919050565b6000612e8e82612e05565b91507fffffffffffffffffffffffffffffffffffffffffffffffffffffffffffffffff821415612ec157612ec0612efd565b5b600182019050919050565b6000612ed782612e05565b9150612ee283612e05565b925082612ef257612ef1612f2c565b5b828206905092915050565b7f4e487b7100000000000000000000000000000000000000000000000000000000600052601160045260246000fd5b7f4e487b7100000000000000000000000000000000000000000000000000000000600052601260045260246000fd5b7f4e487b7100000000000000000000000000000000000000000000000000000000600052602260045260246000fd5b7f4e487b7100000000000000000000000000000000000000000000000000000000600052604160045260246000fd5b6000601f19601f8301169050919050565b612fd381612d9b565b8114612fde57600080fd5b50565b612fea81612dad565b8114612ff557600080fd5b50565b61300181612db9565b811461300c57600080fd5b50565b61301881612e05565b811461302357600080fd5b5056fea2646970667358221220062023d31b7428e99429eb262fc31bd8e7e70dbd8e1f14b9ea351174b7c073f364736f6c63430008000033",
  "immutableReferences": {},
  "source": "// SPDX-License-Identifier: MIT\r\npragma solidity ^0.8.0;\r\n\r\n\r\n//Importing openzeppelin-solidity ERC-721 implemented Standard\r\nimport \"@openzeppelin/contracts/token/ERC721/ERC721.sol\";\r\n\r\n// StarNotary Contract declaration inheritance the ERC721 openzeppelin implementation\r\ncontract StarNotary is ERC721 {\r\n\r\n    constructor () ERC721(\"Star Notary\", \"$STAR\") {}\r\n\r\n    // Star data\r\n    struct Star {\r\n        string name;\r\n    }\r\n\r\n    mapping(uint256 => Star) public tokenIdToStarInfo;\r\n    mapping(uint256 => uint256) public starsForSale;\r\n\r\n    // Create Star using the Struct\r\n    function createStar(string memory _name, uint256 _tokenId) public { // Passing the name and tokenId as a parameters\r\n        Star memory newStar = Star(_name); // Star is an struct so we are creating a new Star\r\n        tokenIdToStarInfo[_tokenId] = newStar; // Creating in memory the Star -> tokenId mapping\r\n        _mint(msg.sender, _tokenId); // _mint assign the the star with _tokenId to the sender address (ownership)\r\n    }\r\n\r\n    // Putting a Star for sale (Adding the star tokenid into the mapping starsForSale, first verify that the sender is the owner)\r\n    function putStarUpForSale(uint256 _tokenId, uint256 _price) public {\r\n        require(ownerOf(_tokenId) == msg.sender, \"You can't sell Star(s) you don't own\");\r\n        starsForSale[_tokenId] = _price;\r\n    }\r\n\r\n\r\n\r\n    function buyStar(uint256 _tokenId) public payable {\r\n        require(starsForSale[_tokenId] > 0, \"The Star should be up for sale\");\r\n\r\n        uint starCost = starsForSale[_tokenId];\r\n        uint buyerOffer = msg.value;\r\n        bool buyerSentMoreThanRequired = buyerOffer > starCost;\r\n\r\n        address ownerAddress = ownerOf(_tokenId);\r\n        address buyerAddress = msg.sender;\r\n\r\n        require(buyerSentMoreThanRequired, \"Sufficient Eth is required\");\r\n\r\n        _transfer(ownerAddress, buyerAddress, _tokenId);\r\n        payable(ownerAddress).transfer(starCost);\r\n\r\n        if (buyerSentMoreThanRequired) {\r\n            payable(buyerAddress).transfer(buyerOffer - starCost);\r\n        }\r\n\r\n        delete starsForSale[_tokenId];\r\n    }\r\n\r\n    // Implement Task 1 lookUptokenIdToStarInfo\r\n    function lookUptokenIdToStarInfo (uint _tokenId) public view returns (string memory) {\r\n        //1. You should return the Star saved in tokenIdToStarInfo mapping\r\n        return tokenIdToStarInfo[_tokenId].name;\r\n    }\r\n\r\n    // Implement Task 1 Exchange Stars function\r\n    function exchangeStars(uint256 _tokenId1, uint256 _tokenId2) public {\r\n        //1. Passing to star tokenId you will need to check if the owner of _tokenId1 or _tokenId2 is the sender\r\n        //2. You don't have to check for the price of the token (star)\r\n\r\n        address ownerAddress1 = ownerOf(_tokenId1);\r\n        address ownerAddress2 = ownerOf(_tokenId2);\r\n\r\n        require(msg.sender == ownerAddress1 || msg.sender == ownerAddress2, \"You need to own at least one of the tokens\");\r\n\r\n        //4. Use _transferFrom function to exchange the tokens.\r\n        _transfer(ownerAddress1, ownerAddress2, _tokenId1);\r\n        _transfer(ownerAddress2, ownerAddress1, _tokenId2);\r\n    }\r\n\r\n    // Implement Task 1 Transfer Stars\r\n    function transferStar(address _recipient, uint256 _tokenId) public {\r\n        safeTransferFrom(msg.sender, _recipient, _tokenId);\r\n    }\r\n\r\n}\r\n",
  "sourcePath": "C:\\Users\\User\\blockchain\\CryptoStarDapp\\contracts\\starNotary.sol",
  "compiler": {
    "name": "solc",
    "version": "0.8.0+commit.c7dfd78e.Emscripten.clang"
  },
  "schemaVersion": "3.4.3",
  "updatedAt": "2021-10-15T10:51:25.864Z",
  "devdoc": {
    "kind": "dev",
    "methods": {
      "approve(address,uint256)": {
        "details": "See {IERC721-approve}."
      },
      "balanceOf(address)": {
        "details": "See {IERC721-balanceOf}."
      },
      "getApproved(uint256)": {
        "details": "See {IERC721-getApproved}."
      },
      "isApprovedForAll(address,address)": {
        "details": "See {IERC721-isApprovedForAll}."
      },
      "name()": {
        "details": "See {IERC721Metadata-name}."
      },
      "ownerOf(uint256)": {
        "details": "See {IERC721-ownerOf}."
      },
      "safeTransferFrom(address,address,uint256)": {
        "details": "See {IERC721-safeTransferFrom}."
      },
      "safeTransferFrom(address,address,uint256,bytes)": {
        "details": "See {IERC721-safeTransferFrom}."
      },
      "setApprovalForAll(address,bool)": {
        "details": "See {IERC721-setApprovalForAll}."
      },
      "supportsInterface(bytes4)": {
        "details": "See {IERC165-supportsInterface}."
      },
      "symbol()": {
        "details": "See {IERC721Metadata-symbol}."
      },
      "tokenURI(uint256)": {
        "details": "See {IERC721Metadata-tokenURI}."
      },
      "transferFrom(address,address,uint256)": {
        "details": "See {IERC721-transferFrom}."
      }
    },
    "version": 1
  },
  "userdoc": {
    "kind": "user",
    "methods": {},
    "version": 1
  }
}